:100000000C941D080C9443080C9443080C9443086A
:100010000C9443080C9443080C9443080C94430834
:100020000C9443080C9443080C9443080C94430824
:100030000C9443080C9491210C9443080C944308AD
:100040000C9443080C9443080C9443080C94430804
:100050000C9443080C9443080C9443080C944308F4
:100060000C9443080C94042F0C94542F0C944308C4
:100070000C9443080C9443080C9443080C944308D4
:100080000C9443080C9443080C9443080C944308C4
:100090000C9443080C9443080C9443080C944308B4
:1000A0000C9443080C9443080C9443080C944308A4
:1000B0000C9443080C9443080C9427210C94C92FEA
:1000C0000C9443080C9443080C9443080C94430884
:1000D0000C9443080C94C4540C9443080C944308A7
:1000E0000C9443080C9443080C9443080C94430864
:1000F0000C9443080C9443080C9443080C94430854
:100100000C9443080C9443080C9443080C94430843
:100110000C9443080C9443080C9443080C94430833
:100120000C9443080C9443080C9443080C94430823
:100130000C945C210C9443080C9443080C944308E1
:100140000C9443080C9443080C9443080C94430803
:100150000C9443080C9443080C9443080C944308F3
:100160000C9443080C9443080C9443080C944308E3
:100170000C9443080C9443080C9443080C944308D3
:100180000C9443080C9443080C9443080C944308C3
:100190000C9443080C9443080C9443080C944308B3
:1001A0000C9443080C9443080C9443080C94F220DC
:1001B0000C94FA550C9443080C9443080C9443088F
:1001C0000C9443080C9443080C9443080C94430883
:1001D0000C9443080C9443080C9443080C94430873
:1001E0000C9443080C9443080C9443080C94430863
:1001F0000C944308BB1AC01AC51AC91ACD1AD11AD1
:10020000DA1ADE1AE21A161B161B161B161B161B11
:10021000161BE61AFB1AFE1A2853345395539B53A8
:1002200025532553255325532553255336543B54E5
:100230003D544B546A544572726F7220665F6F7002
:10024000656E20696E205344496E666F2E6D617431
:100250002E0A004572726F7220665F6C7365656B63
:1002600020696E2072656D61696E656420646174D9
:10027000612E0A004572726F7220665F6C7365654D
:100280006B20696E205344496E666F2E6D61742E2B
:100290000A004572726F7220696E20665F6C73652A
:1002A000656B20696E207570646174655F66756E3C
:1002B00063436E745F79206C6F6164206E6578743F
:1002C000206275666665720A00726573203D2020A3
:1002D00025750A004572726F7220696E20665F7222
:1002E00065616420696E207570646174655F667510
:1002F0006E63436E745F790A00726573203D20203F
:1003000025750A004572726F7220696E20665F6CF7
:100310007365656B20696E207570646174655F66D6
:10032000756E63436E745F780A00726573203D20BA
:100330002025750A004572726F7220696E20665F13
:100340007265616420696E20696E207570646174E5
:10035000655F66756E63436E745F780A00726573DD
:10036000203D202025750A004572726F7220696E4B
:1003700070757420666F722066756E6374696F6E37
:10038000206368616E6E656C2E0A004572726F7232
:1003900020665F6F70656E20696E207365745F768E
:1003A000656C5F66756E6320592E0A004572726F28
:1003B0007220665F7265616420696E207365745F88
:1003C00076656C5F66756E6320592E0A00536574FE
:1003D00074696E672076656C6F63697479206675E1
:1003E0006E6374696F6E20257520666F7220590ADE
:1003F000004572726F7220665F6F70656E20696E65
:10040000207365745F76656C5F66756E6320582E29
:100410000A004572726F7220665F726561642069BE
:100420006E207365745F76656C5F66756E632058C9
:100430002E0A0053657474696E672076656C6F636D
:100440006974792066756E6374696F6E20202575F6
:1004500020666F7220580A004572726F7220696EB2
:1004600070757420666F722066756E6374696F6E46
:10047000206368616E6E656C2E0A004572726F7241
:1004800020665F6F70656E20696E207365745F70A3
:100490006F735F66756E6320592E0A004572726F26
:1004A0007220665F72656164207365745F706F733C
:1004B0005F66756E6320592E0A0053657474696E09
:1004C0006720706F736974696F6E2066756E6374F0
:1004D000696F6E20257520666F7220590A0045727B
:1004E000726F7220665F6F70656E20696E20736533
:1004F000745F706F735F66756E6320582E0A0045D7
:1005000072726F7220665F72656164207365745FDA
:10051000706F735F66756E6320580A00536574745C
:10052000696E6720706F736974696F6E2066756E8F
:100530006374696F6E20257520666F7220580A00FB
:1005400057726F6E672066756E6374696F6E206395
:1005500068616E6E656C206E756D6265722E0A0044
:1005600053657474696E672064656661756C742088
:1005700066756E6374696F6E20666F7220592E0AFD
:100580000053657474696E672064656661756C7488
:100590002066756E6374696F6E20666F7220582EC8
:1005A0000A002062656E63685F74696D65203D2096
:1005B000256C75206D732C206672616D655F7261AC
:1005C0007465203D2025750A0043616E6E6F7420AE
:1005D00066696E6420746865206861726477617210
:1005E0006520636F6E6669672066696C65206F6E53
:1005F0002074686520534420636172642E0A00539E
:1006000075636365737366756C6C79206C6F616478
:100610002074686520686172647761726520636F19
:100620006E6669672066696C6520746F2045455069
:10063000524F4D0A004572726F72206F70656E697D
:100640006E67207061747465726E2066696C650AED
:10065000004572726F722072656164696E6720690D
:100660006E207061747465726E2066696C650A0034
:100670002020785F6E756D203D2025750A20207939
:100680005F6E756D203D2025750A20206E756D5FAB
:1006900070616E656C73203D2025750A202067739C
:1006A0005F76616C7565203D2025750A20726F7735
:1006B0005F636F6D7072657373696F6E203D202587
:1006C000750A0053657474696E672070617474658F
:1006D000726E2025753A0A00524553203D2025753B
:1006E0002C20665F6E756D3D2025752C206F66662B
:1006F000736574203D20256C750A004572726F7217
:1007000020696E20665F6C7365656B20696E20667C
:10071000657463685F646973706C61795F66726148
:100720006D65210A00524553203D2025752C206619
:100730005F6E756D3D2025752C20636E743D202500
:10074000750A004572726F7220696E20665F72656D
:10075000616420696E2066657463685F64697370A4
:100760006C61795F6672616D65210A005375636320
:100770006573732073657420746865206E657720D7
:100780006C61736572207061747465726E2E0A00FC
:100790007365745F6761696E5F626961733A206750
:1007A00061696E5F783D2025642C20206269617349
:1007B0005F783D2025642C206761696E5F793D205C
:1007C00025642C20626961735F793D25640A00739A
:1007D00065745F706F736974696F6E3A20696E64D7
:1007E00065785F783D2025752C2020696E646578DA
:1007F0005F793D2025752C20616E64206672616DE5
:10080000655F6E756D3D2025750A0066756E6374B3
:10081000696F6E2059207570646174652066726519
:100820007175656E6379203D2025752E0A00667509
:100830006E6374696F6E20582075706461746520F2
:100840006672657175656E6379203D2025752E0A87
:100850000070726F624C61736572203D20202564C8
:100860003A0A004144435F76616C7565203D202063
:1008700025643A0A00526573657420636F6E747262
:100880006F6C6C657220746F20776F726B20696E6D
:10089000207468652050432064756D70696E672010
:1008A0006D6F6465210A00526573657420636F6E15
:1008B00074726F6C6C657220746F20776F726B202E
:1008C000696E2074686520636F6E74726F6C6C65FE
:1008D00072206D6F6465210A007570646174653AF9
:1008E000202564202564202564202564202564209B
:1008F00025642025642025643A0A004375727265D8
:100900006E742076657273696F6E206E756D6265A8
:10091000722069732025732E0A0043757272656E0A
:100920007420776F726B696E67206D6F64652069E4
:1009300073207468652050432064756D70696E671C
:10094000206D6F6465210A0043757272656E7420B4
:10095000776F726B696E67206D6F646520697320B5
:1009600074686520436F6E74726F6C6C6572206D75
:100970006F6465210A003F3F3F0A00204E4F54201C
:100980005245414459210A002057524954452050AC
:10099000524F544543544544210A00204552524F7A
:1009A00052210A0020464154204F4B210A00496E33
:1009B000697469616C697A696E67204641542044A4
:1009C00069736B2E2E2E003F3F3F0A00534448436D
:1009D0000A00424C4B0A005344430A005344320A73
:1009E0000053440A004D4D430A0043617264207471
:1009F0007970653A20005344206361726420697302
:100A000020696E697469616C697A65640A00496E6F
:100A1000697469616C697A6174696F6E2066616975
:100A20006C65642121210A005344206361726420B3
:100A300069732057726974652050726F74656374AE
:100A40006564210A00496E73657274205344206303
:100A5000617264000A4D61696E20436F6E74726F3B
:100A60006C6C657220576F726B730A0043616E6E17
:100A70006F742066696E64207468652070616E65AD
:100A80006C2025642E0A0042616420657869742018
:100A9000636D642C20726573756C74203D20257520
:100AA0000A00646F6E2774206B6E6F7720686F7713
:100AB00020746F206465616C2077697468207265AA
:100AC00063747970653D2564206174206C696E657E
:100AD000202564206F6620656570726F6D2E6865D5
:100AE000780A000A00766572696679206D69736D0F
:100AF0006174636820666F72207061676520256489
:100B00000A00766572696679206D69736D61746338
:100B10006820666F7220706167652025640A006333
:100B20006865636B73756D3D3078253032782C20A5
:100B3000636F6D707574656420636865636B73754E
:100B40006D3D3078253032780A004552524F523A86
:100B500020636865636B73756D206D69736D617477
:100B60006368206174206C696E65202564206F665F
:100B700020656570726F6D2E6865780A000A76656B
:100B800072696679696E673A20004572726F7220E9
:100B9000665F6C7365656B20696E20656570726F4A
:100BA0006D2E6865782E0A00646F6E2774206B6E58
:100BB0006F7720686F7720746F206465616C207791
:100BC00069746820726563747970653D256420617D
:100BD00074206C696E65202564206F6620656570E1
:100BE000726F6D2E6865782E0A00636865636B739B
:100BF000756D3D3078253032782C20636F6D7075BF
:100C000074656420636865636B73756D3D3078252A
:100C10003032780A004552524F523A206368656379
:100C20006B73756D206D69736D6174636820617499
:100C3000206C696E65202564206F66206565707282
:100C40006F6D2E6865782E0A000A77726974696E76
:100C5000673A202020004261642070616E656C203C
:100C600072657365742C20726573756C74203D20F9
:100C700025750A00656570726F6D2070616E656C18
:100C80002025752E0A004572726F7220665F6F70A4
:100C9000656E20696E20656570726F6D2E6865786F
:100CA0002E0A0025530A004F4B004449534B5F4521
:100CB000525200494E545F455252004E4F545F52BB
:100CC00045414459004E4F5F46494C45004E4F5FE9
:100CD0005041544800494E56414C49445F4E414DA5
:100CE000450044454E494544004558495354004940
:100CF0004E56414C49445F4F424A45435400575277
:100D00004954455F50524F54454354454400494E61
:100D100056414C49445F4452495645004E4F545F3A
:100D2000454E41424C4544004E4F5F46494C455F5D
:100D300053595354454D004D4B46535F41424F521A
:100D40005445440054494D454F5554000043616E8D
:100D50006E6F742066696E64207468652070616EC1
:100D6000656C2025642E0A004261642065786974F0
:100D700020636D642C20726573756C74203D202592
:100D8000750A00646F6E2774206B6E6F7720686F32
:100D90007720746F206465616C20776974682072B5
:100DA0006563747970653D2564206174206C696E9B
:100DB00065202564206F662070616E656C2E686505
:100DC000780A000A00766572696679206D69736D2C
:100DD0006174636820666F722070616765202564A6
:100DE0000A00766572696679206D69736D61746356
:100DF0006820666F7220706167652025640A006351
:100E00006865636B73756D3D3078253032782C20C2
:100E1000636F6D707574656420636865636B73756B
:100E20006D3D3078253032780A004552524F523AA3
:100E300020636865636B73756D206D69736D617494
:100E40006368206174206C696E65202564206F667C
:100E50002070616E656C2E6865780A000A7665728E
:100E6000696679696E673A20004572726F72206612
:100E70005F6C7365656B20696E2070616E656C2EAA
:100E80006865782E0A00646F6E2774206B6E6F772A
:100E900020686F7720746F206465616C20776974B7
:100EA0006820726563747970653D256420617420E3
:100EB0006C696E65202564206F662070616E656CBC
:100EC0002E6865780A00636865636B73756D3D30E5
:100ED00078253032782C20636F6D707574656420CE
:100EE000636865636B73756D3D3078253032780AC1
:100EF000004552524F523A20636865636B73756DBB
:100F0000206D69736D61746368206174206C696E13
:100F100065202564206F662070616E656C2E6865A3
:100F2000782E0A000A77726974696E673A20202069
:100F3000004261642070616E656C20726573657437
:100F40002C20726573756C74203D2025750A00662F
:100F50006C6173682070616E656C2025752E0A00C7
:100F60004572726F7220665F6F70656E20696E20C9
:100F700070616E656C2E6865782E0A00426164208F
:100F8000666C61736820726561642C20726573758C
:100F90006C74203D2025750A0023004261642066A0
:100FA0006C61736820726561642C20726573756C66
:100FB00074203D2025750A00230042616420656588
:100FC00070726F6D2077726974652C20726573750D
:100FD0006C74203D2025750A002300426164206660
:100FE0006C61736820726561642C20726573756C26
:100FF00074203D2025750A00230042616420666C40
:1010000061736820726561642C20726573756C74FD
:10101000203D2025750A00230042616420666C6132
:1010200073682077726974652C20726573756C74AF
:10103000203D2025750A0023000011241FBECFEF9C
:10104000DFE3DEBFCDBF00E00CBF18BE19BE1ABE85
:101050001BBE14E2A0E0B0E2E8EDFDEB00E00BBF48
:1010600002C007900D92AA3EB107D9F71BBE1CE241
:10107000AAEEB4E201C01D92A332B107E1F70E94CB
:101080006B1E0C94EA5E0C940000AC0120E030E092
:10109000F901E157F94DDA01A20FB31F8C9180835A
:1010A0002F5F3F4F2E33310599F708958091C12767
:1010B0009091C22701968093C1279093C227809177
:1010C000C1279091C22740912B2850912C2884173A
:1010D000950720F01092C1271092C227809176299F
:1010E000909177292091C1273091C227BC01649F3C
:1010F000C001659F900D749F900D1124820F931F66
:101100008093EF249093F0248091EB24882329F09E
:101110008091EA248F5F8093EA2408958091762954
:101120009091772901968093762990937729209141
:101130007629309177298091AF259091B025281795
:10114000390720F01092762910927729209176297C
:10115000309177294091C1275091C22780912B2847
:1011600090912C28BC01269FC001279F900D369F8F
:10117000900D1124840F951F8093EF249093F024F9
:101180008091EB24882329F48091EA248F5F809357
:10119000EA2408958091C1279091C227892B29F4D0
:1011A00080912B2890912C2804C08091C127909188
:1011B000C22701978093C1279093C2272091762957
:1011C000309177294091C1275091C22780912B28D7
:1011D00090912C28BC01269FC001279F900D369F1F
:1011E000900D1124840F951F8093EF249093F02489
:1011F0008091EB24882329F08091EA248F5F8093EB
:10120000EA2408958091762990917729892B29F4F1
:101210008091AF259091B02504C08091762990915E
:1012200077290197809376299093772920917629C1
:10123000309177294091C1275091C22780912B2866
:1012400090912C28BC01269FC001279F900D369FAE
:10125000900D1124840F951F8093EF249093F02418
:101260008091EB24882329F48091EA248F5F809376
:10127000EA240895813031F09091B120823009F054
:1012800063C032C08091B120882321F481E895E0C9
:101290000E94A0571092FD241092FE2484E690E054
:1012A000A0E0B0E08093A9209093AA20A093AB2067
:1012B000B093AC20EDE2F8E28AE090E08193919364
:1012C00028E2E53FF207D1F71092F1241092F224C0
:1012D0001092F5241092F6241092F7241092F8241C
:1012E00081E08093A1200895992321F480E695E080
:1012F0000E94A0571092FF241092002584E690E0EF
:10130000A0E0B0E08093AD209093AE20A093AF20FA
:10131000B093B020E4EBF5E28AE090E08193919302
:1013200026E2EC37F207D1F71092F3241092F4245E
:101330001092F9241092FA241092FB241092FC24AB
:1013400081E08093A2200895992321F480E495E020
:101350000E94A0570895AC0120E030E0F901E15768
:10136000F94DDA01A20FB31F8C9186AF2F5F3F4F6B
:101370002F33310599F78091B120882321F48CE631
:1013800097E00E94A0570895A4E3B0E0EAECF9E0EA
:101390000C941F598BE098E266EB70E241E00E94EA
:1013A0008D4D882309F0B5C08090152870911628BE
:1013B000682D809117289091182822E330E040E0B2
:1013C00050E00E94E15879018A019924939422E324
:1013D000322E93E0692E712C6C0E7D1E2E01089426
:1013E000411C511C3AC0939CC0011124C2975C015E
:1013F000CC24B7FCC094DC2C8BE098E2B601A501AC
:101400000E94373D882301F5809111289091122880
:10141000A0911328B09114288A159B05AC05BD0531
:1014200099F48BE098E2B30142E350E092010E940C
:10143000A44E882389F489819A81C29769F4C301F3
:1014400062E30E94E82E08C08091B120882321F435
:1014500084E792E00E94A0579394892D90E0A0E049
:10146000B0E0E816F9060A071B0708F0BCCF82E3D4
:10147000989EC0011124C2975C01CC24B7FCC09493
:10148000DC2C8BE098E2B601A5010E94373D882351
:1014900099F58091112890911228A0911328B0916C
:1014A00014288A159B05AC05BD0531F5C801B701A7
:1014B00022E330E040E050E00E949B58D82CD61A3E
:1014C0000D2D10E083E0E82EF12CEC0EFD1E8BE0DC
:1014D00098E2B701A8019E012F5F3F4F0E94A44EE2
:1014E000882391F489819A818017910769F4C70153
:1014F0006D2D0E94E82E08C08091B120882321F430
:1015000083E592E00E94A0578BE098E20E94D149C7
:1015100008C08091B120882321F486E392E00E94E4
:10152000A057E496E1E10C943B59A2E0B0E0EBE96E
:10153000FAE00C942A598130C1F02091F9243091BD
:10154000FA244091FB245091FC248091AD2090918D
:10155000AE20A091AF20B091B0200297A109B109AF
:10156000281739074A075B0778F01092F324109286
:10157000F4241092F9241092FA241092FB24109271
:10158000FC2440E052E00FC08091F9249091FA24AD
:10159000A091FB24B091FC24AC0140505E4F10920E
:1015A000F3241092F4247A0100E010E08EE097E238
:1015B000B801A7010E94373D282F882309F073C086
:1015C0008091142790911527A0911627B091172785
:1015D0008E159F05A007B10709F065C02091AD20C9
:1015E0003091AE204091AF205091B0208091F924ED
:1015F0009091FA24A091FB24B091FC2479018A01F6
:10160000E81AF90A0A0B1B0BD801C701883C91059F
:10161000A105B10518F088EC90E00CC08091F92488
:101620009091FA24A091FB24B091FC248901081B1D
:10163000190BC8018093B4209093B5204091B42039
:101640005091B5208EE097E264EB75E29E012F5F2A
:101650003F4F0E94A44E482F882349F42091B42084
:101660003091B52089819A8182179307C9F18091C1
:10167000B1208823A9F500D00F92EDB7FEB73196BF
:1016800089EF92E0ADB7BEB711968D939C931297F8
:10169000428313820E94E2570F900F900F900F9099
:1016A00084ED92E01BC08091B1208823C9F400D062
:1016B0000F92EDB7FEB7319689EC92E0ADB7BEB7A9
:1016C00011968D939C931297228313820E94E25766
:1016D0000F900F900F900F9082E992E00E94A05718
:1016E0002296E6E00C944659A2E0B0E0EAE7FBE07F
:1016F0000C942A598130C1F02091F5243091F624C0
:101700004091F7245091F8248091A9209091AA202B
:10171000A091AB20B091AC200297A109B109281784
:1017200039074A075B0778F01092F1241092F224EF
:101730001092F5241092F6241092F7241092F824B7
:1017400040E052E00FC08091F5249091F624A091E2
:10175000F724B091F824AC0140505E4F1092F12470
:101760001092F2247A0100E010E08FE795E2B801D0
:10177000A7010E94373D282F882309F073C080916C
:10178000852590918625A0918725B09188258E1575
:101790009F05A007B10709F065C02091A9203091ED
:1017A000AA204091AB205091AC208091F5249091DB
:1017B000F624A091F724B091F82479018A01E81A5F
:1017C000F90A0A0B1B0BD801C701883C9105A1053A
:1017D000B10518F088EC90E00CC08091F524909150
:1017E000F624A091F724B091F8248901081B190B65
:1017F000C8018093B2209093B3204091B2205091C1
:10180000B3208FE795E26DE278E29E012F5F3F4FB4
:101810000E94A44E482F882349F42091B220309191
:10182000B32089819A8182179307C9F18091B120F1
:101830008823A9F500D00F92EDB7FEB731968DE55C
:1018400093E0ADB7BEB711968D939C9312974283E8
:1018500013820E94E2570F900F900F900F9085E334
:1018600093E01BC08091B1208823C9F400D00F926F
:10187000EDB7FEB731968AE293E0ADB7BEB71196E9
:101880008D939C931297228313820E94E2570F90AC
:101890000F900F900F9084E093E00E94A057229643
:1018A000E6E00C9446598091FF2490910025892B05
:1018B000E9F08091F3249091F42401968093F3242D
:1018C0009093F4248091F9249091FA24A091FB2420
:1018D000B091FC240296A11DB11D8093F924909330
:1018E000FA24A093FB24B093FC240DC08091F32430
:1018F0009091F424019664E670E00E94BA588093B7
:10190000F3249093F424809109288530A9F4E09180
:10191000F324F091F424EE0FFF1FEC54FA4D808174
:101920009181BC0135E0660F771F3A95E1F7680FAA
:10193000791F81E00E94122308958091FD249091E7
:10194000FE24892BE9F08091F1249091F2240196F4
:101950008093F1249093F2248091F5249091F624C1
:10196000A091F724B091F8240296A11DB11D809397
:10197000F5249093F624A093F724B093F8240DC097
:101980008091F1249091F224019664E670E00E9427
:10199000BA588093F1249093F2248091BF27853028
:1019A000A9F4E091F124F091F224EE0FFF1FE35D22
:1019B000F74D80819181BC0155E0660F771F5A95E4
:1019C000E1F7680F791F80E00E9412230895AEE0CE
:1019D000B2E0EDEEFCE00C942C59082F162F6A3083
:1019E00080F400D000D0EDB7FEB73196CE0103965B
:1019F000ADB7BEB711968D939C93129780E090E29D
:101A00001FC0CE010396643670F400D000D0EDB74D
:101A1000FEB73196ADB7BEB711968D939C931297D2
:101A20008EE090E20DC000D000D0EDB7FEB7319649
:101A3000ADB7BEB711968D939C9312978BE190E250
:101A400082839383148315820E94E95B8DB79EB7CE
:101A500006968DBF9EBF013021F0023009F0CCC048
:101A600065C08FE795E20E94D1498FE795E2BE01FC
:101A70006D5F7F4F41E00E948D4D882309F048C083
:101A80008FE795E2BE01615F7F4F40E052E09E012B
:101A90002F5F3F4F0E94A44E882399F589819A8138
:101AA0008050924071F58F858093A920888980931A
:101AB000AA2089898093AB208A898093AC201093D7
:101AC000FD241092FE2400939C201092EA24809121
:101AD000B120882329F500D00F92EDB7FEB73196DB
:101AE00083E394E0ADB7BEB711968D939C931297A4
:101AF000128313820E94E2570F900F900F900F9065
:101B00000FC08091B120882359F482E194E006C08F
:101B10008091B120882321F481EF93E00E94A057A7
:101B20001092A12081E00E94740B6EC08EE097E2BB
:101B30000E94D1498EE097E2BE016D5F7F4F41E088
:101B40000E948D4D882309F049C08EE097E2BE01C6
:101B5000615F7F4F40E052E09E012F5F3F4F0E9448
:101B6000A44E8823A1F589819A818050924079F50D
:101B70008F858093AD2088898093AE20898980935A
:101B8000AF208A898093B0201093FF241092002503
:101B900081E080939C201092EA248091B1208823D8
:101BA00029F500D00F92EDB7FEB731968DEC93E09A
:101BB000ADB7BEB711968D939C9312971283138283
:101BC0000E94E2570F900F900F900F900FC08091DE
:101BD000B120882359F48CEA93E006C08091B120AB
:101BE000882321F48BE893E00E94A0571092A22052
:101BF00081E00E94950A08C08091B120882321F4D9
:101C000088E693E00E94A057C25FDD4FE4E00C94A9
:101C10004859AEE0B2E0EFE0FEE00C942C59082FFA
:101C2000162F6A3080F400D000D0EDB7FEB73196A1
:101C3000CE010396ADB7BEB711968D939C931297C4
:101C400087E290E21FC0CE010396643670F400D0A4
:101C500000D0EDB7FEB73196ADB7BEB711968D93F4
:101C60009C93129785E390E20DC000D000D0EDB7B1
:101C7000FEB73196ADB7BEB711968D939C93129770
:101C800082E490E282839383148315820E94E95B4D
:101C90008DB79EB706968DBF9EBF013021F00230F2
:101CA00009F0CCC065C08FE795E20E94D1498FE76B
:101CB00095E2BE016D5F7F4F41E00E948D4D88230C
:101CC00009F048C08FE795E2BE01615F7F4F40E0B9
:101CD00052E09E012F5F3F4F0E94A44E882399F54A
:101CE00089819A818050924071F58F858093A920D7
:101CF00088898093AA2089898093AB208A898093E0
:101D0000AC201093FD241092FE2400939C2010928E
:101D1000EA248091B120882329F500D00F92EDB7F5
:101D2000FEB731968CE195E0ADB7BEB711968D93B5
:101D30009C931297128313820E94E2570F900F9088
:101D40000F900F900FC08091B120882359F48FEF2E
:101D500094E006C08091B120882321F48EED94E0B8
:101D60000E94A0571092A12081E00E94740B6EC0C7
:101D70008EE097E20E94D1498EE097E2BE016D5F4E
:101D80007F4F41E00E948D4D882309F049C08EE0CD
:101D900097E2BE01615F7F4F40E052E09E012F5FFE
:101DA0003F4F0E94A44E8823A1F589819A818050DB
:101DB000924079F58F858093AD2088898093AE20FD
:101DC00089898093AF208A898093B0201093FF2463
:101DD0001092002581E080939C201092EA2480914B
:101DE000B120882329F500D00F92EDB7FEB73196C8
:101DF0008AEB94E0ADB7BEB711968D939C93129782
:101E0000128313820E94E2570F900F900F900F9051
:101E10000FC08091B120882359F48CE994E006C06A
:101E20008091B120882321F48BE794E00E94A05791
:101E30001092A22081E00E94950A08C08091B120F2
:101E4000882321F488E594E00E94A057C25FDD4F0B
:101E5000E4E00C9448591F93CF93DF93162FEA01C7
:101E6000882349F580918B268823E1F78EE796E257
:101E700060E0AE01212F0E9422318091A5298823A4
:101E8000E1F788E999E260E0AE01212F0E9422315A
:101E900080913B278823E1F78EE297E260E0AE0174
:101EA000212F0E9422318091AD258823E1F780EA1D
:101EB00095E260E022C0E82FF0E0DF01A25CB84DBF
:101EC000AC91EB50F74D6081AA23D9F0A33051F0CB
:101ED000A43059F0A23019F4A8E9B9E208C0AEE77D
:101EE000B6E205C0AEE2B7E202C0A0EAB5E21D96D6
:101EF0008C911D978823D9F7CD01AE01212F0E9427
:101F00002231DF91CF911F910895FC0180818031B2
:101F100019F08131A9F407C08181738160E0928159
:101F2000690F711D09C0738160E08281680F711DA6
:101F30008181709561957F4F81500E941223089591
:101F400080E068E04EED50E20E942B0F0895A2E081
:101F5000B0E0EDEAFFE00C942B598C01FC0180818C
:101F6000803209F4A5C0813238F4803109F48FC081
:101F7000853109F0F0C093C0803309F4C3C08F3FAE
:101F800021F0853209F0E7C0A0C0F801F18080910E
:101F90008B268823E1F78EE796E26F2D4EEF50E215
:101FA00022E00E9422318091A5298823E1F788E967
:101FB00099E26F2D4EEF50E222E00E942231809193
:101FC0003B278823E1F78EE297E26F2D4EEF50E238
:101FD00022E00E9422318091AD258823E1F780EA3A
:101FE00095E26F2D4EEF50E222E00E94223180EF09
:101FF00095E520E233E0F9013197F1F70197D9F740
:102000008FEF8983F801928180918B268823E1F7F5
:102010009A838EE796E26F2DAE014F5F5F4F22E00D
:102020000E9422318091A5298823E1F788E999E26D
:102030006F2DAE014F5F5F4F22E00E9422318091F1
:102040003B278823E1F78EE297E26F2DAE014F5FC9
:102050005F4F22E00E9422318091AD258823E1F775
:1020600080EA95E26F2DAE014F5F5F4F22E00E9444
:10207000223184EF91E020E233E0F9013197F1F76A
:102080000197D9F780E062E04EEF50E268C0F801B6
:1020900081818093BF2782818093092862C0F801E3
:1020A0006281662349F0F80181810E94090E59C0BE
:1020B000F8016281662321F481810E943A0951C0AE
:1020C000F80181810E94E70C4CC0F801928180E008
:1020D00021818C01020F111D980140E050E062E166
:1020E0007AE780E090E00E9403592093A320309388
:1020F000A4208091B1208823A1F500D00F928EE218
:1021000098E01CC0F801928180E021818C01020FCF
:10211000111D980140E050E062E17AE780E090E034
:102120000E9403592093A5203093A6208091B120CE
:102130008823B9F400D00F928BE098E0EDB7FEB79A
:1021400081839283038314830E94E2570F900F9040
:102150000F900F9006C080E068E046ED50E20E94CC
:102160002B0F2296E5E00C944759A2E8B0E0EBEB88
:10217000F0E10C942859282F8A3080F400D000D048
:10218000EDB7FEB7319681E095E2ADB7BEB71196D7
:102190008D939C9312978EE490E21FC081E095E2AC
:1021A000243670F400D000D0EDB7FEB73196ADB74D
:1021B000BEB711968D939C9312978CE590E20DC05B
:1021C00000D000D0EDB7FEB73196ADB7BEB71196CF
:1021D0008D939C93129789E690E282839383248364
:1021E00015820E94E95BEDB7FEB73696EDBFFEBFE4
:1021F0008BE098E261E075E241E00E948D4D88231A
:10220000C9F5E3E0CE2ED12CCC0EDD1E8BE098E29A
:10221000B60140E850E09E012F5F3F4F0E94A44E60
:10222000882309F589819A8180389105E1F47FE35B
:10223000E72E77E2F72E00E010E0F601E00FF11F45
:102240006081D7016D937D010F5F1F4FC8018F5FC4
:102250009F4F0E94245E0038110579F781E090E0DD
:1022600060E00E94245E8BE098E20E94D1498FEFEB
:1022700095E002C089EC95E00E94A057CE57DF4F51
:10228000E8E00C94445983E00E9491220895AAE06A
:10229000B0E0EDE4F1E10C941E598091BF2782304B
:1022A00009F48DC0833030F4882359F0813009F06F
:1022B0009AC132C0833009F4D2C0843009F093C18E
:1022C00048C1E091F124F091F224EE0FFF1FE35D8D
:1022D000F74D20813181220F331F20938D263093BB
:1022E0008E2680910A28992787FD9095AC01249F1E
:1022F000C001259F900D349F900D11246AE070E07D
:102300000E94CE58CB0120919F2545E024029001E8
:102310001124820F931F9DC080E00E94A22264E0DE
:1023200070E00E94CE58CB01880F991F880F991F2B
:1023300040918D2650918E269A01220F331F240F33
:10234000351F220F331F820F931F6AE070E00E9437
:10235000CE589B0160938D2670938E2680910A281B
:10236000992787FD9095BC01269FC001279F900D5E
:10237000369F900D11246AE070E00E94CE58CB0188
:1023800020919F2545E0240290011124820F931F84
:1023900062E070E00E94CE589B011B0171E0213089
:1023A000370724F0212CF1E03F2E1FC18FEF2030A2
:1023B00038070CF01AC1212CEFEF3E2E16C180E039
:1023C0000E94A22264E070E00E94CE58CB01880FE8
:1023D000991F880F991F40918D2650918E269A0142
:1023E000220F331F240F351F220F331F820F931F1D
:1023F0006AE070E00E94CE58DB0160938D267093F6
:102400008E26E091F124F091F224EE0FFF1FE35DA0
:10241000F74D20813181220F331F80919F2545E0A8
:102420008402C0011124280F391F80910A2899279E
:1024300087FD9095FC01AE9FC001AF9F900DBE9FA0
:10244000900D11246AE070E00E94CE58C901860FF9
:10245000971F62E070E00E94CE581B01C6C082E068
:102460000E94A222182F092F60919D2070E080E029
:1024700090E02FEF3FE040E050E00E949B582AE0C0
:1024800030E040E050E00E94E15849015A01A901C2
:1024900020902B2830902C28B10180E090E06D83B3
:1024A0007E838F8398876901EE24FF242B013C01F2
:1024B000440C551C661C771C212F302FC90148176E
:1024C000590708F4C4019C0140E050E0C301B20187
:1024D0000E949B586C0D7D1D8E1D9F1DCC0CDD1C1C
:1024E000EE1CFF1CA70196010E94035921503040A9
:1024F000404050408D819E81AF81B88528173907B3
:102500004A075B074CF0089421083108910140E02C
:1025100050E00894211C311C57FF04C020E030E03B
:1025200040E050E02093C1273093C2278091762964
:10253000909177292091C1273091C227DC01A29D7B
:10254000C001A39D900DB29D900D1124820F931F89
:1025500046C0E091F124F091F224EE0FFF1FE35DFD
:10256000F74D0190F081E02D80910C2790910D277F
:10257000E80FF91F20912B2830912C28F7FD09C076
:10258000CF01B9010E94BA588093C1279093C22706
:1025900010C0882799278E1B9F0BB9010E94BA583B
:1025A00021503040F901E81BF90BE093C127F0936B
:1025B000C22720917629309177294091C1275091E7
:1025C000C22780912B2890912C28BC01269FC00106
:1025D000279F900D369F900D1124840F951F809397
:1025E000EF249093F0242224332480910928823010
:1025F00009F48BC0833030F4882359F0813009F01E
:1026000099C132C0833009F4D0C0843009F092C13E
:1026100047C1E091F324F091F424EE0FFF1FEC5436
:10262000FA4D20813181220F331F2093B125309341
:10263000B2258091C327992787FD9095DC012A9FB9
:10264000C0012B9F900D3A9F900D11246AE070E01D
:102650000E94CE58CB012091DA2B45E02402900154
:102660001124820F931F9BC081E00E94A22264E08C
:1026700070E00E94CE58CB01880F991F880F991FD8
:102680004091B1255091B2259A01220F331F240F9A
:10269000351F220F331F820F931F6AE070E00E94E4
:1026A000CE586093B1257093B2258091C3279927A6
:1026B00087FD9095FC016E9FC0016F9F900D7E9FDE
:1026C000900D11246AE070E00E94CE58CB01209159
:1026D000DA2B45E0240290011124820F931F62E05F
:1026E00070E00E94CE587B01F1E061307F0724F05A
:1026F000E12CF1E0FF2E20C14FEF603074070CF0A9
:102700001BC1E12CEFEFFE2E17C181E00E94A22237
:1027100064E070E00E94CE58CB01880F991F880FAB
:10272000991F4091B1255091B2259A01220F331F74
:10273000240F351F220F331F820F931F6AE070E0B2
:102740000E94CE58DB016093B1257093B225E091D1
:10275000F324F091F424EE0FFF1FEC54FA4D208186
:102760003181220F331F8091DA2B45E08402C001B2
:102770001124280F391F8091C327992787FD909531
:10278000BC01A69FC001A79F900DB69F900D11247C
:102790006AE070E00E94CE58C901860F971F62E080
:1027A00070E00E94CE587B01C7C083E00E94A22245
:1027B000182F092F60919D2070E080E090E02FEFAE
:1027C0003FE040E050E00E949B582AE030E040E0CB
:1027D00050E00E94E15849015A01A9018091AF25BA
:1027E0009091B02589879A87BC0180E090E0698349
:1027F0007A838B839C836901EE24FF242B013C01A7
:10280000440C551C661C771C212F302FC90148171A
:10281000590708F4C4019C0140E050E0C301B20133
:102820000E949B586C0D7D1D8E1D9F1DCC0CDD1CC8
:10283000EE1CFF1CA70196010E9403592150304055
:102840004040504069817A818B819C8126173707EF
:102850004807590734F089859A8501979C0140E023
:1028600050E057FF04C020E030E040E050E020930B
:1028700076293093772920917629309177294091D4
:10288000C1275091C22780912B2890912C28DC01E0
:102890002A9FC0012B9F900D3A9F900D112444C098
:1028A000E091F324F091F424EE0FFF1FEC54FA4D65
:1028B0000190F081E02D80917C2690917D26E80F9B
:1028C000F91F2091AF253091B025F7FD09C0CF0148
:1028D000B9010E94BA58809376299093772910C045
:1028E000882799278E1B9F0BB9010E94BA58215047
:1028F0003040F901E81BF90BE0937629F093772932
:1029000020917629309177294091C1275091C22793
:1029100080912B2890912C28BC01269FC001279FD5
:10292000900D369F900D1124840F951F8093EF24F6
:102930009093F024EE24FF2480919C20813059F163
:102940001214130474F49101442737FD4095542F59
:1029500062E17AE780E090E00E94E15886E598E045
:1029600013C021143104C9F0222733272219330957
:10297000442737FD4095542F62E17AE780E090E0EC
:102980000E94E1588AEC98E0BA01A90122E001E036
:102990000E9470300EC0EE24FF248AEC98E04EE4D2
:1029A00050E060E070E022E000E00E9470302224FD
:1029B00033241E141F0474F49701442737FD4095F7
:1029C000542F62E17AE780E090E00E94E1588EE8BF
:1029D00098E013C0E114F104A9F0222733272E193F
:1029E0003F09442737FD4095542F62E17AE780E0A4
:1029F00090E00E94E15882E099E0BA01A90123E049
:102A000001E008C082E099E04EE450E060E070E050
:102A100023E000E00E9470301092EB242E143F045B
:102A20001CF081E08093EB242A96E2E10C943A5961
:102A3000A1E0B0E0EEE1F5E10C9426595C01FC0167
:102A4000E080F180C280D38084818093EE249581E0
:102A500090933D2786818093B325882319F0909326
:102A6000C02709C0892F90E023E0880F991F2A957D
:102A7000E1F78093C0271092EA2481E061E00E9490
:102A8000702291E007E010E00FC0A501400F511F38
:102A9000892F6091C02799830E942B0F8091C027B6
:102AA000080F111D99819F5F8091EE24891768F7A7
:102AB0007F2D60E06E0D711D80E00E9412237D2D40
:102AC00060E06C0D711D81E00E94122381E060E0E6
:102AD0000E9470222196EAE00C9442594F925F9234
:102AE0006F927F929F92AF92BF92CF92DF92EF92BE
:102AF000FF920F931F93DF93CF9300D000D0CDB7F9
:102B0000DEB75C014DB65EB68FB781E061E00E9432
:102B100070229091C0278091EE24989F600111242B
:102B20008DB79EB78C199D098DBF9EBF6DB67EB6C1
:102B30000894611C711C6D2D66956F5F70E080E0DC
:102B400090E0950140E050E00E949B587B018C0191
:102B50000894E11CF11C011D111D69E0EE0CFF1C25
:102B6000001F111F6A95D1F788E799E2B801A70104
:102B70000E94373D982E882309F0F4C180917E2968
:102B800090917F29A0918029B09181298E159F0570
:102B9000A007B10709F0E6C188E799E2B301A601F1
:102BA0009E012F5F3F4F0E94A44E182F882309F0EB
:102BB000B4C189819A818C159D0509F0AEC18091BF
:102BC000EA24823018F081E00E94FE211092EA246B
:102BD000DD24D394EE24FF2453E0A52EB12CAC0EBB
:102BE000BD1E95C183010E0D1F1DC090C027809191
:102BF000A729813009F082C198E0C91659F5D8019A
:102C00009C9111968C911197981721F512964C91E1
:102C1000129713968C9113974817E1F414963C91F0
:102C2000149715968C9115973817A1F416962C9138
:102C3000169717968C91281769F4941759F49317DF
:102C400049F4921739F48D2D61E0A8010E942B0FF1
:102C500051E001C050E08091C027883109F08CC05C
:102C6000F301EE0DFF1DE081D80111968C911197B3
:102C7000E81709F081C012963C91129713968C9137
:102C80001397381709F078C014962C91149715965D
:102C90008C911597281709F06FC016969C9116977E
:102CA00017968C911797981709F066C0E31709F0EB
:102CB00063C0E21709F060C0E91709F05DC018961B
:102CC0009C91189719968C911997981709F054C0F0
:102CD0001A964C911A971B968C911B97481709F0DE
:102CE0004BC01C963C911C971D968C911D973817D4
:102CF00009F042C01E962C911E971F968C911F972B
:102D00002817D1F59417C1F59317B1F59217A1F5CE
:102D100050969C91509751968C915197981761F5C8
:102D200052964C91529753968C915397481721F590
:102D300054963C91549755968C9155973817E1F4D9
:102D400056962C91569757968C9157972817A1F421
:102D5000941791F4931781F4921771F4EB831896FA
:102D60008C9118978C8350968C918D838D2D63E078
:102D7000A5010E942B0F51E08091C027803209F0FD
:102D8000BBC0F301EE0DFF1DE081D80111968C91BF
:102D90001197E81709F0B0C012963C91129713965C
:102DA0008C911397381709F0A7C014962C9114979B
:102DB00015968C911597281709F09EC016969C9130
:102DC000169717968C911797981709F095C0E317E7
:102DD00009F092C0E21709F08FC0E91709F08CC022
:102DE00018969C91189719968C911997981709F035
:102DF00083C01A964C911A971B968C911B97481773
:102E000009F07AC01C963C911C971D968C911D97D9
:102E1000381709F071C01E962C911E971F968C9141
:102E20001F97281709F068C0941709F065C0931719
:102E300009F062C0921709F05FC050969C915097BC
:102E400051968C915197981709F056C052964C9113
:102E5000529753968C915397481709F04DC054964A
:102E60003C91549755968C915597381709F044C06A
:102E700056962C91569757968C9157972817E1F5AF
:102E80009417D1F59317C1F59217B1F558969C9107
:102E9000589759968C915997981771F55A964C9165
:102EA0005A975B968C915B97481731F55C963C91ED
:102EB0005C975D968C915D973817F1F45E962C9136
:102EC0005E975F968C915F972817B1F49417A1F4E1
:102ED000931791F4921781F4EB8318968C911897BD
:102EE0008C8350968C9150978D8358968C918E83BD
:102EF0008D2D64E0A50106C0552331F48D2D609120
:102F0000C027A8010E942B0FEC0CF11CD3948091D8
:102F1000EE248D1508F066CE4CC08091B120882338
:102F200009F047C083E497E00E94A057EDB7FEB7D1
:102F30003897EDBFFEBF319685E297E0ADB7BEB7DB
:102F400011968D939C93129712831382A482B5825B
:102F500089819A81868397830E94E257EDB7FEB7F5
:102F6000389625C08091B120882319F58BEF96E023
:102F70000E94A0578DB79EB70A978DBF9EBFEDB731
:102F8000FEB7319688ED96E0ADB7BEB711968D933A
:102F90009C93129792821382A482B582E682F78272
:102FA000008711870E94E257EDB7FEB73A96EDBF52
:102FB000FEBF8091BF278530E1F06091C1277091FD
:102FC000C22780E090E06F5F7F4F8F4F9F4F2FEFC2
:102FD0003FE740E050E00E949B5820912B28309121
:102FE0002C2840E050E00E94E15880E0B9010E94A6
:102FF0001223809109288530E1F060917629709143
:10300000772980E090E06F5F7F4F8F4F9F4F2FEFCA
:103010003FE740E050E00E949B582091AF2530915F
:10302000B02540E050E00E94E15881E0B9010E94E3
:10303000122380919C20882309F054C00091C1275D
:103040001091C227C090C127D090C22743E01695A7
:1030500007954A95E1F710E0F801E157F94DE08056
:103060000E94BB5A68E471E00E94CE58FF2433E00E
:10307000000F111F3A95E1F7C01A87E090E08C1914
:10308000910902C0F594E7948A95E2F78091A02017
:10309000E0FC03C08617A0F402C0861788F082E027
:1030A00060E070E40E94122383E060E070E00E9420
:1030B00012238091EC248130A9F480E061E010C0FB
:1030C00082E060E070E00E94122383E060E070E440
:1030D0000E9412238091EC24813021F480E060E092
:1030E0000E94702281E060E00E9470224DBE5EBEB0
:1030F0002696CDBFDEBFCF91DF911F910F91FF903C
:10310000EF90DF90CF90BF90AF909F907F906F90A7
:103110005F904F900895A0E0B0E0E1E9F8E10C94F1
:10312000265981E080939C202091AF253091B025D5
:1031300080912B2890912C28289F5001299FB00C1A
:10314000389FB00C11240E947056C0E0D0E004C03B
:10315000CE010E946E152196CA15DB05C8F30E94A8
:1031600085567B018C018DB79EB708978DBF9EBF9A
:10317000CDB6DEB60894C11CD11C82EA95E0EDB74D
:10318000FEB781839283F601E282F3820483158382
:10319000B50180E090E028EE33E040E050E00E948E
:1031A0009B58A80197010E94E158F60126833783B6
:1031B0000E94E2578DB79EB708968DBF9EBFCDB7D0
:1031C000DEB7EAE00C944259A2E0B2E0EAEEF8E1A0
:1031D0000C942D59182F8A3080F400D000D0EDB710
:1031E000FEB731968DE095E2ADB7BEB711968D93DF
:1031F0009C93129785E790E21FC08DE095E214360C
:1032000070F400D000D0EDB7FEB73196ADB7BEB7C1
:1032100011968D939C93129783E890E20DC000D095
:1032200000D0EDB7FEB73196ADB7BEB711968D930E
:103230009C93129780E990E2828393831483158292
:103240000E94E95B8DB79EB706968DBF9EBF88E74B
:1032500099E20E94D14988E799E26DE075E241E088
:103260000E948D4D882309F0A7C088E799E2BE012E
:103270006D5F7F4F40E052E09E012F5F3F4F0E9405
:10328000A44E882309F091C089819A818050924090
:1032900009F08BC08B8180932B288C8180932C2804
:1032A0008D818093AF258E818093B0258F8180930F
:1032B000EE24988590933D27892F8B50843048F4D5
:1032C0009A5090933D2781E08093B3259093C02737
:1032D0000BC01092B325892F90E073E0880F991FDF
:1032E0007A95E1F78093C02710927629109277297A
:1032F00080917629909177298093C1279093C22756
:103300001092EF241092F02481E080939C20109280
:10331000EA248091B120882309F040C000D00F92A8
:10332000EDB7FEB7319683EC96E0ADB7BEB7119618
:103330008D939C931297128313820E94E2578DB74C
:103340009EB708978DBF9EBFEDB7FEB7319680E759
:1033500096E0ADB7BEB711968D939C93129780916E
:103360002B2890912C28828393838091AF25909174
:10337000B025848395838091EE2486831782809183
:103380003D27808711868091B325828713860E940E
:10339000E2578DB79EB70C968DBF9EBF8091EF24EC
:1033A0009091F0240E946E150FC08091B120882367
:1033B00059F481E596E006C08091B120882321F47C
:1033C00085E396E00E94A057CE5FDD4FE3E00C94CA
:1033D0004959FC018081803721F0813709F0B5C05F
:1033E00073C0928180E02181820F911D8093C1275B
:1033F0009093C227948180E02381820F911D809356
:103400007629909377298091C1279091C227809344
:103410000C2790930D27809176299091772980939E
:103420007C2690937D2620917629309177294091B2
:10343000C1275091C22780912B2890912C28BC0144
:10344000269FC001279F900D369F900D1124840F59
:10345000951F8093EF249093F0241092EA2480919A
:10346000B120882351F52091C1273091C227409186
:103470007629509177296091EF247091F0248DB7CF
:103480009EB708978DBF9EBFEDB7FEB731968FEC04
:1034900097E0ADB7BEB711968D939C931297228398
:1034A000338344835583668377830E94E2576DB7E5
:1034B0007EB7685F7F4F6DBF7EBF8091EF24909194
:1034C000F0240E946E150895518150930A2842817C
:1034D00040939F2533813093C32724812093DA2B97
:1034E0008091B1208823B9F58DB79EB70A978DBF1B
:1034F0009EBFEDB7FEB7319680E997E0ADB7BEB796
:1035000011968D939C931297852F992787FD9095FF
:1035100082839383842F992787FD90958483958355
:10352000832F992787FD909586839783822F9927EC
:1035300087FD9095808791870E94E2576DB77EB78F
:10354000665F7F4F6DBF7EBF089580E068E046EE06
:1035500050E20E942B0F08951F93FC01118180817E
:1035600090E0FC013197E231F10508F05FC0E650D0
:10357000FF4F0C945559812F62E04EEF50E25AC034
:10358000812F62E040E051E255C0812F0E94E41893
:1035900053C0812F0E9494234FC0812F0E94382353
:1035A0004BC0812F90E0880F991F8093A7209093A4
:1035B000A82042C0812F0E94F2293EC0812F0E9484
:1035C00000273AC0812F0E94B51036C0812F81504C
:1035D0000E94A22200D00F9223E638E0ADB7BEB71A
:1035E00011962D933C93129713968D939C93149759
:1035F0000E94E25716C010939D201EC000D00F926B
:10360000EDB7FEB7319681E598E0ADB7BEB711963C
:103610008D939C931297128313820E94E25710930A
:10362000A0200F900F900F900F9006C080E068E0F0
:103630004EEC50E20E942B0F1F910895A2E0B0E0E3
:10364000E4E2FBE10C942859FC01E081E53409F443
:1036500016C2E63408F058C0E93109F4C8C2EA31AC
:1036600040F5E33109F487C2E43180F4E03109F434
:1036700073C2E13120F4EE2309F4E3C122C3E13146
:1036800009F46EC2E23109F01CC371C2E63109F4DB
:103690008FC2E73138F4E43109F470C2E53109F042
:1036A00010C36FC2E73109F49BC2E83109F009C3C6
:1036B0009BC2E53309F47BC1E63398F4E23209F4A6
:1036C000EEC2E33238F4E03209F473C0E13209F0BB
:1036D000F8C2D5C2E53209F409C1E03309F0F1C2FC
:1036E000B7C0E23409F4BCC1E33438F4E03409F47F
:1036F000ADC1E13409F0E5C2AEC1E33409F4B5C1AE
:10370000E43409F0DEC2B6C1E53909F4EEC1E639A8
:1037100028F5E03709F4CDC1E13768F4E73409F45E
:10372000B8C1E73408F4B0C1E03509F4BCC1E036F3
:1037300009F0C7C2BBC1E23909F4C8C1E33938F4A2
:10374000E03909F4B9C1E13909F0BBC2BAC1E339C2
:1037500009F4C1C1E43909F0B4C2C2C1EB3909F4BA
:10376000E2C1EC3998F4E83909F4CEC1E93938F40A
:10377000E63909F4BFC1E73909F0A3C2C0C1E9398C
:1037800009F4C7C1EA3909F09CC2C8C1EE3909F48D
:10379000D9C1EF3938F4EC3909F4CAC1ED3909F06F
:1037A00090C2CBC1EF3909F4D2C1EF3F09F089C211
:1037B00075C11092F5241092F6241092F7241092FD
:1037C000F8241092F9241092FA241092FB241092FB
:1037D000FC241092F1241092F2241092F3241092FF
:1037E000F42410929C201092EA2487E491E14EE4A4
:1037F00050E060E070E021E001E00E944A3086E5A0
:1038000098E04EE450E060E070E022E000E00E94CA
:103810004A308EE898E04EE450E060E070E023E04B
:103820000E944A304091A3205091A42060E070E0B3
:103830008DE99CE024E001E00E944A304091A520FF
:103840005091A62060E070E083E59CE025E0ACC0EC
:1038500081E080939C2087E491E14EE450E060E0B9
:1038600070E021E000E00E944A3086E598E04EE4F6
:1038700050E060E070E022E00E944A308EE898E07C
:103880004EE450E060E070E023E00E944A30409156
:10389000A3205091A42060E070E08DE99CE024E03A
:1038A0000E944A304091A5205091A62060E070E02F
:1038B00083E59CE025E00E944A308091A120882386
:1038C00019F481E00E94740B8091A220882319F4DE
:1038D00081E00E94950A82E060E070E00E9412237D
:1038E00083E060E070E00E941223F1C11092F524A1
:1038F0001092F6241092F7241092F8241092F924D2
:103900001092FA241092FB241092FC241092F124BD
:103910001092F2241092F3241092F42410929C201E
:103920001092EA2487E491E14EE450E060E070E018
:1039300021E001E00E944A3086E598E04EE450E044
:1039400060E070E022E000E00E944A308EE898E0FB
:103950004EE450E060E070E023E00E944A30409185
:10396000A3205091A42060E070E08DE99CE024E069
:1039700001E00E944A304091A5205091A62060E0CD
:1039800070E083E59CE025E00E944A306091A7202A
:103990007091A82082E19AE70E94BA58AB0160E0DA
:1039A00070E083E491E120E00E944A3090C181E020
:1039B00080939C2087E491E14EE450E060E070E069
:1039C00021E000E00E944A3086E598E04EE450E0B5
:1039D00060E070E022E00E944A308EE898E04EE419
:1039E00050E060E070E023E00E944A304091A32064
:1039F0005091A42060E070E08DE99CE024E00E94FA
:103A00004A304091A5205091A62060E070E083E507
:103A10009CE025E00E944A302091A7203091A82008
:103A200040E050E062E17AE780E090E00E940359D4
:103A300083E491E1BA01A90120E00E944A3083E0C9
:103A400092C080E068E049E155E23FC180E068E172
:103A500042E051E23AC180E068E14AE151E235C119
:103A600080E068E142E351E230C180E068E14AE48D
:103A700051E22BC180E068E142E651E226C180E0DC
:103A800068E14AE751E221C180E068E142E951E2A0
:103A90001CC180E068E14AEA51E217C180E068E0B9
:103AA00042EC51E212C10E94112211C10E947C23FA
:103AB0000EC10E948B180BC180E060E24AEC51E21B
:103AC00004C180E060E24AEE51E2FFC080E060E2C3
:103AD0004AE052E2FAC080E060E24AE252E2F5C017
:103AE00080E060E24AE452E2F0C080E060E24AE650
:103AF00052E2EBC080E060E24AE852E2E6C080E0D9
:103B000060E24AEA52E2E1C080E060E24AEC52E25E
:103B1000DCC080E060E24AEE52E2D7C080E060E2C2
:103B20004AE053E2D2C080E060E24AE253E2CDC014
:103B300080E060E24AE453E2C8C080E060E24AE626
:103B400053E2C3C080E060E24AE853E2BEC080E0D6
:103B500060E24AEA53E2B9C081E08093EC24B7C046
:103B60001092EC2480E060E00E947022B0C081E0FE
:103B70008093A729ACC01092A729A9C00E94C409AC
:103B8000A6C000D00F928BEF98E0ADB7BEB71196EC
:103B90008D939C9312978AEC93E213968D939C934A
:103BA00014970E94E2570F900F900F900F908FC0C4
:103BB000FFE3EF2EF7E2FF2E01E01EEF6E01089407
:103BC000C11CD11C1983F70181917F018A83802F49
:103BD00062E0A6010E942B0F0F5F013899F777C0B2
:103BE00081E08093B12073C01092B12070C08DB776
:103BF0009EB742978DBF9EBFEDB7FEB7319689ED58
:103C000098E0ADB7BEB711968D939C9312978091B3
:103C10000A28992787FD90958283938380919F2519
:103C2000992787FD90958483958380910C279091A7
:103C30000D27868397838091BF2780871186809187
:103C4000C327992787FD9095828793878091DA2BE8
:103C5000992787FD90958487958780917C26909100
:103C60007D268687978780910928808B118A0E94FC
:103C7000E257EDB7FEB77296EDBFFEBF28C080E0F9
:103C800090E06FEF0E94245E0F920F9287EA98E017
:103C9000ADB7BEB711968D939C9312970DC080E07F
:103CA00090E060E00E94245E0F920F9285E798E01A
:103CB000EDB7FEB7818392830E94E2570F900F9079
:103CC00006C080E068E046EC50E20E942B0F22968E
:103CD000E8E00C944459A0E5B6E0E1E7FEE10C947D
:103CE000285980E090E00E94145EE82E8EE796E26C
:103CF0006E2D0E94EE3188E999E26E2D0E94EE3120
:103D00008EE297E26E2D0E94EE3180EA95E26E2DF2
:103D10000E94EE318EE796E260E874E040E450E005
:103D200023E20E949F3088E999E260E974E040E470
:103D300050E023E20E949F308EE297E260EA74E056
:103D400040E450E023E20E949F3080EA95E260EB7D
:103D500074E040E450E023E20E949F308E2D0E94E8
:103D6000962F0E94F82C8FE59EE280937D259093FC
:103D70007E2580E090E02AE030E0FC01EC54FA4D32
:103D800020833183FC01E35DF74D2083318302966C
:103D9000883C910591F7EFE8F6E220E030E04FEF44
:103DA0002330310520F0C9010697039710F44083B2
:103DB00001C010822F5F3F4F31962D37310581F7BB
:103DC00010927629109277298091762990917729FF
:103DD0008093C1279093C2278091C1279091C227D9
:103DE00080937C2690937D2680930C2790930D27BB
:103DF0001092DA2B10929F251092C32710920A2856
:103E0000109209281092BF271092B1251092B22566
:103E100010928D2610928E2681E080933D2710927D
:103E2000B3251092A72981E090E00E94145E8F3F95
:103E3000D9F4198224E014C0E82FF0E0E25CF84DD8
:103E4000982F93709083882319F0992309F4208385
:103E50008981E82FF0E0EB50F74D80838F5F8983F5
:103E60008981813848F317C0198211C00F2D10E0E5
:103E7000C8018F5F9F4F0E94145EF801E25CF84D0D
:103E800080830B50174DF801F082F394F982F9808A
:103E9000F0E8FF1558F784E59AE00E94A05781E00A
:103EA00061E00E94DB2101E010E2C12E13E0D12E7F
:103EB0003AC080E00E940152082F81FF0DC085E4C6
:103EC0009AE00E94A0570E948B2E04C080E00E94BE
:103ED0000152082F01FDFACF02FF04C088E29AE0E8
:103EE0000E94A057198210C080E00E94F754082F4A
:103EF00080FF0DC089818F5F898384EF91E0F60197
:103F00003197F1F70197D9F78981843068F300FF81
:103F10000AC08EE09AE00E94A05780E00E94015201
:103F2000082F81FFFACF00FDC4CF86EF99E00E94F1
:103F3000A05780E06AE0AE014F5F5F4F0E94EB52F6
:103F4000892B59F58AEE99E00E94A0578981843027
:103F5000A1F0853028F4813051F08230D1F40AC0CC
:103F6000883089F08C3091F0863099F409C085EE64
:103F700099E011C081EE99E00EC08CED99E00BC084
:103F800087ED99E008C082ED99E005C08CEC99E0DE
:103F900002C087EC99E00E94A0578EEA99E00E9447
:103FA000A05780E068EA79E20E948F32813051F0B8
:103FB000813028F0823049F0833069F409C084EA06
:103FC00099E00BC08BE999E008C088E899E005C04A
:103FD0008BE799E002C086E799E00E94A05780E055
:103FE00068E049E155E20E942B0F81E060E00E9409
:103FF000DB210E9411228FEFE81609F0D0C088E47F
:1040000099E00E94A0578E010E5F1F4F0E942C2E38
:10401000892B09F449C0C8010E94922E8430910571
:1040200009F18530910548F48230910599F083308B
:104030009105A0F4019791F509C08E339105D1F057
:104040008F33910539F1059749F510C0C8010E94D9
:104050001E1B2AC0C8010E94AC1A26C0C8010E94BB
:10406000A70F22C0C8010E94850F1EC0C8010E9470
:10407000E9191AC020E030E0F901E157F94DD80103
:10408000A20FB31F8C9180832F5F3F4F2E333105DA
:1040900099F70AC0C8010E94AB0906C080E068E039
:1040A0004EEE50E20E942B0F80919C20882309F055
:1040B000ADCF2091EF243091F02480919E209091FB
:1040C0009F202817390771F08091EF249091F024F8
:1040D00080939E2090939F208091EF249091F024D4
:1040E0000E946E158091A120882349F52091F1242A
:1040F0003091F2248091B2209091B32096958795CB
:10410000019728173907C0F42091F5243091F6243F
:104110004091F7245091F8248091A9209091AA20F1
:10412000A091AB20B091AC200297A109B10928174A
:1041300039074A075B0718F080E00E94740B8091F2
:10414000A220882309F062CF2091F3243091F42437
:104150008091B4209091B520969587950197281766
:104160003907C8F42091F9243091FA244091FB24B6
:104170005091FC248091AD209091AE20A091AF2071
:10418000B091B0200297A109B109281739074A0751
:104190005B0708F43BCF80E00E94950A37CF8AE1A5
:1041A00099E00E94A0578E010D5B1F4F0E942C2E9C
:1041B000892BE1F3C8010E94922E8130910519F0FC
:1041C000C29749F404C0C8010E941E1BEFCFC8016A
:1041D0000E941815EBCF80E068E04EEE50E20E949E
:1041E0002B0FE4CF1F920F920FB60F9208B60F92CB
:1041F00009B60F920BB60F92112418BE19BE1BBE42
:104200002F933F934F935F936F937F938F939F93DE
:10421000AF93BF93EF93FF9380EA95E20E94BB3187
:10422000FF91EF91BF91AF919F918F917F916F918E
:104230005F914F913F912F910F900BBE0F9009BE50
:104240000F9008BE0F900FBE0F901F9018951F92F1
:104250000F920FB60F9208B60F9209B60F920BB6D7
:104260000F92112418BE19BE1BBE2F933F934F937C
:104270005F936F937F938F939F93AF93BF93EF93CE
:10428000FF938EE297E20E94BB31FF91EF91BF91C5
:10429000AF919F918F917F916F915F914F913F91DE
:1042A0002F910F900BBE0F9009BE0F9008BE0F907C
:1042B0000FBE0F901F9018951F920F920FB60F927E
:1042C00008B60F9209B60F920BB60F92112418BEC2
:1042D00019BE1BBE2F933F934F935F936F937F93B2
:1042E0008F939F93AF93BF93EF93FF9388E999E2E6
:1042F0000E94BB31FF91EF91BF91AF919F918F9140
:104300007F916F915F914F913F912F910F900BBED5
:104310000F9009BE0F9008BE0F900FBE0F901F9018
:1043200018951F920F920FB60F9208B60F9209B60A
:104330000F920BB60F92112418BE19BE1BBE2F93FD
:104340003F934F935F936F937F938F939F93AF931D
:10435000BF93EF93FF938EE796E20E94BB31FF91EC
:10436000EF91BF91AF919F918F917F916F915F91ED
:104370004F913F912F910F900BBE0F9009BE0F9060
:1043800008BE0F900FBE0F901F9018950F93DF93EC
:10439000CF930F92CDB7DEB72FB72983F8941BBE0A
:1043A000FC0108ED04BF608389818FBF0F90CF911E
:1043B000DF910F910895282F30E0C9018C7F892B60
:1043C000E1F4862F8E7FC9F42C5F3F4F613059F4A2
:1043D00081E090E002C0880F991F2A95E2F7E0E0A3
:1043E000F7E08683089581E090E002C0880F991F6E
:1043F0002A95E2F7E0E0F7E085830895282F30E082
:10440000C9018C7F892B61F42C5F3F4F81E090E0E4
:1044100002C0880F991F2A95E2F7E0E0F7E0878352
:10442000089520E030E0A0E0B7E060E240E253E031
:1044300017966C9317978CEA9DE0FA013197F1F784
:104440000197D9F72F5F3F4F2A30310589F708953B
:10445000482F50E0CA018C7F892B79F56623B9F487
:104460004C5F5F4F81E090E09C01042E02C0220F60
:10447000331F0A94E2F744505040E0E2F7E026830D
:1044800002C0880F991F4A95E2F781830895613031
:10449000A1F481E090E09C01042E02C0220F331FA2
:1044A0000A94E2F7E0E2F7E022834C5F5F4F02C03C
:1044B000880F991F4A95E2F785830895282F30E0E9
:1044C000C9018C7F892B11F080E008958091280725
:1044D00090E002C0959587952A95E2F7817008953E
:1044E000282F30E0C9018C7F892BD1F4862F8E7F55
:1044F000B9F4613059F481E090E002C0880F991F4F
:104500002A95E2F7E0E2F7E08583089581E090E004
:1045100002C0880F991F2A95E2F7E0E2F7E0868350
:104520000895282F30E0C9018C7F892B51F481E058
:1045300090E002C0880F991F2A95E2F7E0E2F7E0C9
:1045400087830895A2E0B0E0E8EAF2E20C942E59E5
:10455000282F30E0C901887F892B19F020E030E056
:104560005CC080E1E0E4F6E08683C901877090706A
:10457000880F991F880F991F8068E0ECF8E083830B
:104580008091C20887FFFCCF80E1E0ECF8E08383F4
:104590008091C20887FFFCCFE0E4F6E080E18583EC
:1045A0008683E0ECF8E013828091C20887FFFCCF9D
:1045B000DE0111969091C308E0ECF8E0138280913F
:1045C000C20887FFFCCF8091C30811969C93119776
:1045D0008C9380E1E0E4F6E085832E7F89819A81E7
:1045E000232B69F49C013F7094FF04C035952795F7
:1045F000386F02C03595279529833A830CC094FF04
:1046000004C09F709595879504C090619595879596
:104610009F7089839A8329813A81C9012296E2E0B9
:104620000C944A59982F8C7F11F580E860307807F8
:10463000F1F080E1E0E6F6E086839770E0ECF9E0E7
:1046400093838091C20987FFFCCFE0ECF9E073838C
:104650008091C20987FFFCCFE0ECF9E06383809191
:10466000C20987FFFCCF80E1E0E6F6E0858308958C
:10467000A0E0B0E0EEE3F3E20C942259B82EC0E0E3
:10468000D0E000E217E06624639482E0782EB4E084
:104690008B2EA8E09A2EF0E2EF2EF3E0FF2EC12C35
:1046A000E7E0DE2E70E2A72EF8016782778287822C
:1046B000978288EE93E0F7013197F1F70197D9F7E8
:1046C0008B2D0E94A222BC0128EE33E0F701319726
:1046D000F1F721503040D1F781E00E941223C0FF52
:1046E00002C0F601A7822196CC33D105E9F6CDB7F9
:1046F000DEB7EEE00C943E590F93DF93CF930F9209
:10470000CDB7DEB78FB78983F8941BBE21E089E768
:1047100090E0FC0108ED04BF208389818FBF0F90DA
:10472000CF91DF910F910895A0E0B0E0EAE9F3E2C4
:104730000C942459982E00E040EAA42E4FE0B42EA9
:1047400030E8C32E3EE3D32EE12C27E0F22E90E298
:10475000892E1DC0143610F4BE0103C0B5016C1BB8
:104760007D0B80E00E941223892D0E94A222BC01B1
:1047700081E00E941223C6010197F1F71F5F649642
:10478000183C41F7F70187820F5F0E3121F010E0EE
:10479000C0E0D0E0DFCFCDB7DEB7ECE00C944059FD
:1047A000BC0127EA3CE040E050E008C0F9012F5F7F
:1047B0003F4FE491EE23D1F74F5F5F4F4617570706
:1047C00021F0F9018491882389F700D00F9283EAC0
:1047D0009CE0EDB7FEB781839283238334830E94EC
:1047E000E2570F900F900F900F900895A0E0B0E067
:1047F000ECEFF3E20C9425595C016A017B01922EE7
:10480000E80189E99FE00E94A05787E68883BB27DB
:10481000AF2D9E2D8D2D8983CA829B8285E48C834A
:10482000C50160E7A80125E0092D0E94C130D5012E
:104830001D968C911D978823D1F71E968C911E97FB
:104840008130B9F01E962C9100D00F92EDB7FEB7D3
:1048500031968CE79FE0ADB7BEB711968D939C93D0
:104860001297228313820E94E2570F900F900F90AD
:104870000F90DE0131E020E00DC0E501ED81FE8109
:10488000E20FF11D908115968C911597981330E0E9
:104890002F5F1196291588F3832F90E0CDB7DEB7EF
:1048A000EBE00C944159A0E0B0E0E9E5F4E20C94AF
:1048B00025595C016A017B01922EE80188EB9FE09B
:1048C0000E94A05787E68883BB27AF2D9E2D8D2D94
:1048D0008983CA829B8285E48C83C50160E7A80135
:1048E00025E0092D0E94C130D5011D968C911D97A0
:1048F0008823D1F71E968C911E978130B9F01E96B1
:104900002C9100D00F92EDB7FEB731968BE99FE066
:10491000ADB7BEB711968D939C93129722831382E5
:104920000E94E2570F900F900F900F90DE0190E0E1
:104930000AC0E501ED81FE81E90FF11D8081149629
:104940008C9314979F5F1196991598F3CDB7DEB7A6
:10495000EBE00C944159A0E0B0E0E1EBF4E20C9400
:104960002759EC016A017B01B22E89ED9FE00E947C
:10497000A05782E4D8018C93BB27AF2D9E2D8D2D9F
:10498000F8018183C282B38285E48483F5E0BF0E9F
:10499000CE0160E7A8012B2D00E00E94C1308D857B
:1049A0008823E9F78E858130B1F02E8500D00F92F3
:1049B000EDB7FEB731968AEB9FE0ADB7BEB7119663
:1049C0008D939C931297228313820E94E2570F903B
:1049D0000F900F900F90CDB7DEB7E9E00C944359DC
:1049E000A0E0B0E0E6EFF4E20C9425595C016A0126
:1049F0007B01922EE80188EF9FE00E94A05787E696
:104A00008883BB27AF2D9E2D8D2D8983CA82892D4A
:104A100086958B8386E48C83C50160E7A80125E039
:104A2000092D0E94C130D5011D968C911D978823B8
:104A3000D1F71E968C911E978130B9F01E962C915D
:104A400000D00F92EDB7FEB731968BED9FE0ADB77A
:104A5000BEB711968D939C931297228313820E9466
:104A6000E2570F900F900F900F90DE0131E020E0A1
:104A70000DC0E501ED81FE81E20FF11D90811596DB
:104A80008C911597981330E02F5F1196291588F3B4
:104A9000832F90E0CDB7DEB7EBE00C944159A0E056
:104AA000B0E0E5E5F5E20C9425595C016A017B0173
:104AB000922EE80187E190E10E94A05787E6888363
:104AC000BB27AF2D9E2D8D2D8983CA82892D86957A
:104AD0008B8386E48C83C50160E7A80125E0092D5E
:104AE0000E94C130D5011D968C911D978823D1F766
:104AF0001E968C911E978130B9F01E962C9100D095
:104B00000F92EDB7FEB731968AEF9FE0ADB7BEB713
:104B100011968D939C931297228313820E94E257E1
:104B20000F900F900F900F90DE0190E00AC0E5010A
:104B3000ED81FE81E90FF11D808114968C9314970D
:104B40009F5F1196991598F3CDB7DEB7EBE00C9403
:104B50004159A0E0B0E0EFEAF5E20C942759EC01EE
:104B60006A017B01B22E87E390E10E94A05782E4A4
:104B7000D8018C93BB27AF2D9E2D8D2DF8018183FD
:104B8000C2828B2D8695838386E48483F5E0BF0EF5
:104B9000CE0160E7A8012B2D00E00E94C1308D8579
:104BA0008823E9F78E858130B1F02E8500D00F92F1
:104BB000EDB7FEB7319689E190E1ADB7BEB711967A
:104BC0008D939C931297228313820E94E2570F9039
:104BD0000F900F900F90CDB7DEB7E9E00C944359DA
:104BE000AFE0B0E0E6EFF5E20C941E597C018B01DA
:104BF000DB010D900020E9F76D010894C108D10890
:104C0000C61AD70AB3E0CB16D1040CF4F2C0FB01EC
:104C100081818B8382818C831D82CE0103968C8758
:104C20009D87CE010396BE016F5F7F4F40E150E04C
:104C30000E94CB5AD7016C93E981FA818C859D85BE
:104C4000E817F90709F4D5C08081882309F0D1C09D
:104C500097E0C916D1040CF4CCC0D80113968C91FE
:104C600013978B8314968C9114978C8315968C9143
:104C700015978D8316968C918E831F82CE01039695
:104C8000BE016F5F7F4F40E150E00E94CB5AF701B9
:104C900061837283E981FA818C859D85E817F90724
:104CA00009F4A7C08081882309F0A3C099E0C91640
:104CB000D1040CF49EC0D80117968C9117978B8362
:104CC00018968C918C831D82CE010396BE016F5F76
:104CD0007F4F40E150E00E94CB5AF7016383E981A6
:104CE000FA818C859D85E817F90709F482C08081D7
:104CF000882309F07EC0D70111968C9111971296E6
:104D00009C9112977C90780E790E760E48011701CF
:104D100044245524B9E0AB2EB12CFE013396EE8726
:104D2000FF87CE0101968B87692E32C02C153D0579
:104D30000CF05FC0D40119968C9119978B831A9649
:104D40008C918C83E2E0F0E0AE0EBF1E1D82CE019E
:104D500003966B85762D40E150E00E94CB5AD1013D
:104D600014966C93E981FA818E859F85E817F9077F
:104D700009F43FC0A2E0B0E08A0E9B1E0894211CFB
:104D8000311C80818823A9F5760E0894411C511CA2
:104D9000F701808190E095012F5F3F4F481659063B
:104DA0002CF22C153D052CF5F801EA0DFB1D808138
:104DB0008B8381818C831D828E010D5F1F4FC80103
:104DC000BE016F5F7F4F40E150E00E94CB5A84E00C
:104DD00091E0E80EF91ED7016C93E981FA81E017A2
:104DE000F10739F08081882321F47194272D30E078
:104DF00002C02FEF3FEFC9012F96E2E10C943A5920
:104E0000A0E9B2E0E6E0F7E20C941E59082FE82E84
:104E1000FF24F701E25CF84DE081EE2309F4CDC2F6
:104E2000E33071F0E43089F0E23029F488E9882E2B
:104E300089E2982E0EC01EE7812E16E2912E09C03F
:104E4000BEE28B2EB7E29B2E04C0A0EA8A2EA5E21A
:104E50009A2E89EE97E26FEC73E241E00E948D4D4D
:104E6000182F882349F086E89CE00E94A057812FE4
:104E700090E00E94D0233DC000D00F9284E79CE0D8
:104E8000ADB7BEB711968D939C9312971396ED9282
:104E9000FC9214970E94E257198281E08A830F9056
:104EA0000F900F900F90C401602FAE014F5F5F4FC6
:104EB00022E000E00E94C130F40185858823E1F7FB
:104EC00086858130B1F0268500D00F92EDB7FEB710
:104ED000319686E59CE0ADB7BEB711968D939C9355
:104EE0001297228313820E94E2570F900F900F9027
:104EF0000F9088E893E120E233E0F9013197F1F770
:104F00000197D9F789E49CE00E94A0570FEF1FEFAB
:104F1000CC24DD2466247724F6E82F2E312C2C0EA9
:104F20003D1EE6E84E2EE1E05E2E4C0E5D1EF201C7
:104F30003496C357DD4FE883F983CD58D240CBC0B8
:104F40000894611C711CF10101900020E9F732976F
:104F500080818A3009F41082D1018C918A3309F062
:104F6000BAC0C201B1010E94F025F82EC657DD4F2C
:104F70008881CA58D240F81619F100D00F9285E105
:104F80009CE0EDB7FEB781839283638274820E94B6
:104F9000E2570F920F92EDB7FEB731968AEE9BE083
:104FA000ADB7BEB711968D939C931297C657DD4F40
:104FB0008881CA58D24082831382F482158282C0CB
:104FC000D20113962C911397222309F053C0119606
:104FD000ED90FC9012975701AA0CAB2CAA1CBB08B1
:104FE000B194A016B106C1F0CD1491F01695102F12
:104FF0000027179507950C0D111DA80160E070E0C2
:10500000DC18C4012D2D8E010F5F1F4F0E94AB24B1
:105010005FE7D52EDE20CD2C4E2D4F774C1508F4B2
:10502000C42EF2015081252F30E0C357DD4FA881F7
:10503000B981CD58D240E42FF0E0359681E090E080
:105040008C0F9D1FE80FF91F2C5F3F4F240D351D5E
:1050500002C08D918193A217B307D9F7852F90E0F5
:10506000840F911D2D2D30E0281739079CF5D42E83
:10507000D50E30C02130A9F4CD14B9F11695102FFA
:105080000027179507950C0D111DA80160E070E031
:10509000DC18C4012D2D8E010F5F1F4F0E94AB2421
:1050A00024C000D000D0EDB7FEB7319688EA9BE06F
:1050B000ADB7BEB711968D939C931297228313823E
:1050C000648275820E94E257EDB7FEB73696EDBF57
:1050D000FEBF0BC08501C10160E071E049EE57E2FF
:1050E0000E944E50892B09F02BCF89EE97E240E0C9
:1050F00050E060E070E00E94373D182F882349F0AF
:105100008AE89BE00E94A057812F90E00E94D02364
:105110002CC18DE79BE00E94A057CC24CA94DC2CC4
:1051200000E010E066247724CE018A579F4FC157D4
:10513000DD4F88839983CF58D24036E8432E31E043
:10514000532E4C0E5D1ED2011496C557DD4FA88319
:10515000B983CB58D240FFC00894611C711CC15761
:10516000DD4FE881F981CF58D24001900020E9F766
:10517000329780818A3009F41082CA57DF4F8881C4
:10518000C658D0408A3309F0E6C0C201B1010E947E
:10519000F025F82EC657DD4F8881CA58D240F81640
:1051A00019F100D00F928AE49BE0EDB7FEB781833E
:1051B0009283638274820E94E2570F920F92EDB73E
:1051C000FEB731968FE19BE0ADB7BEB711968D93D8
:1051D0009C931297C657DD4F8881CA58D24082836C
:1051E0001382F4821582AEC0D20113962C911397CC
:1051F000222309F065C01196ED90FC90129757019B
:10520000AA0CAB2CAA1CBB08B194AC14BD0449F188
:10521000011721F1A6015695542F4427579547951C
:10522000400F511D60E070E0101BC401212F8E0162
:105230000F5F1F4F0E94F623892B81F400D00F923D
:1052400082E09BE0EDB7FEB781839283C382D48274
:105250000E94E2570F900F900F900F901E2D1F7716
:10526000012F4E2D4F77401708F4042FD2015C9187
:10527000252F30E0C557DD4FA881B981CB58D240EA
:10528000E42FF0E0359681E090E08C0F9D1FE80F51
:10529000F91F2C5F3F4F240D351D02C08D91819366
:1052A000A217B307D9F7852F90E0840F911D212F06
:1052B00030E0281739070CF04DC0142F150F4AC0E5
:1052C000213079F5011741F1A6015695542F442755
:1052D00057954795400F511D60E070E0101BC401C9
:1052E000212F8E010F5F1F4F0E94F623892BA1F4FF
:1052F00000D00F9285EE9AE0ADB7BEB711968D93B0
:105300009C9312971396CD92DC9214970E94E257C9
:105310000F900F900F900F9083EE9AE00E94A0578D
:1053200024C000D000D0EDB7FEB7319682EA9AE0F3
:10533000ADB7BEB711968D939C93129722831382BB
:10534000648275820E94E257EDB7FEB73696EDBFD4
:10535000FEBF0BC06501C10160E071E049EE57E29C
:105360000E944E50892B09F0F7CE85E48983C40151
:1053700060E7AE014F5F5F4F21E000E00E94C13067
:10538000D4011D968C911D978823D1F71E968C9180
:105390001E97813011F11E962C9100D00F92EDB71F
:1053A000FEB7319687E89AE0ADB7BEB711968D93F8
:1053B0009C931297228313820AC000D00F928CE62E
:1053C0009AE0EDB7FEB781839283E382F4820E9474
:1053D000E2570F900F900F900F90C057DD4FE2E112
:1053E0000C943A59A0E9B2E0E8EFF9E20C941E59A6
:1053F000082FE82EFF24F701E25CF84DE081EE2350
:1054000009F4E1C2E33071F0E43089F0E23029F4CC
:1054100098E9892E99E2992E0EC08EE7882E86E2B1
:10542000982E09C01EE2812E17E2912E04C0B0EA28
:105430008B2EB5E29B2E89EC97E26AED73E241E098
:105440000E948D4D182F882349F080E69FE00E942E
:10545000A057812F90E00E94D02351C007FF12C0B7
:1054600084E0E0E6F6E0868384E690E020E233E044
:10547000F9013197F1F70197D9F784E0E0E6F6E01A
:1054800085833DC000D00F928FE49FE0ADB7BEB7DB
:1054900011968D939C9312971396ED92FC9214970C
:1054A0000E94E257198281E08A830F900F900F903B
:1054B0000F90C401602FAE014F5F5F4F22E000E00C
:1054C0000E94C130F40185858823E1F7868581300B
:1054D000B1F0268500D00F92EDB7FEB7319681E38B
:1054E0009FE0ADB7BEB711968D939C931297228320
:1054F00013820E94E2570F900F900F900F9088E850
:1055000093E120E233E0F9013197F1F70197D9F700
:1055100084E29FE00E94A0570FEF1FEFCC24DD2410
:1055200066247724A6E82A2E312C2C0E3D1EF6E8A0
:105530004F2EF1E05F2E4C0E5D1EF2013496C357E4
:10554000DD4FE883F983CD58D240CBC00894611C6D
:10555000711CF10101900020E9F7329780818A30B7
:1055600009F41082D1018C918A3309F0BAC0C201CA
:10557000B1010E94F025F82EC657DD4F8881CA5828
:10558000D240F81619F100D00F9281EF9EE0EDB7EE
:10559000FEB781839283638274820E94E2570F92E6
:1055A0000F92EDB7FEB7319686EC9EE0ADB7BEB771
:1055B00011968D939C931297C657DD4F8881CA58D8
:1055C000D24082831382F482158282C0D201139664
:1055D0002C911397222309F053C01196ED90FC9063
:1055E00012975701AA0CAB2CAA1CBB08B194A016A9
:1055F000B106C1F0CD1491F01695102F0027179524
:1056000007950C0D111DA80160E070E0DC18C401C5
:105610002D2D8E010F5F1F4F0E94A9256FE7D62EFB
:10562000DE20CD2C4E2D4F774C1508F4C42EF20100
:105630005081252F30E0C357DD4FA881B981CD5867
:10564000D240E42FF0E0359681E090E08C0F9D1F72
:10565000E80FF91F2C5F3F4F240D351D02C08D91BF
:105660008193A217B307D9F7852F90E0840F911D7E
:105670002D2D30E0281739079CF5D42ED50E30C0DB
:105680002130A9F4CD14B9F11695102F00271795E4
:1056900007950C0D111DA80160E070E0DC18C40135
:1056A0002D2D8E010F5F1F4F0E94A92524C000D011
:1056B00000D0EDB7FEB7319686E89EE0ADB7BEB735
:1056C00011968D939C931297228313826482758224
:1056D0000E94E257EDB7FEB73696EDBFFEBF0BC096
:1056E0008501C10160E071E049EC57E20E944E5033
:1056F000892B09F02BCF89EC97E240E050E060E085
:1057000070E00E94373D182F882349F089E69EE01B
:105710000E94A057812F90E00E94D0232CC18CE5DD
:105720009EE00E94A057CC24CA94DC2C00E010E03C
:1057300066247724CE018A579F4FC157DD4F888357
:105740009983CF58D24046E8442E41E0542E4C0E67
:105750005D1ED2011496C557DD4FA883B983CB587F
:10576000D240FFC00894611C711CC157DD4FE88115
:10577000F981CF58D24001900020E9F7329780811B
:105780008A3009F41082CA57DF4F8881C658D0404A
:105790008A3309F0E6C0C201B1010E94F025F82E5B
:1057A000C657DD4F8881CA58D240F81619F100D08B
:1057B0000F928AE29EE0EDB7FEB781839283638207
:1057C00074820E94E2570F920F92EDB7FEB73196A6
:1057D0008FEF9DE0ADB7BEB711968D939C93129756
:1057E000C657DD4F8881CA58D24082831382F48223
:1057F0001582AEC0D20113962C911397222309F083
:1058000065C01196ED90FC9012975701AA0CAB2C35
:10581000AA1CBB08B194AC14BD0449F1011721F1D5
:10582000A6015695542F442757954795400F511D73
:1058300060E070E0101BC401212F8E010F5F1F4F2D
:105840000E94F024892B81F400D00F9282EE9DE01B
:10585000EDB7FEB781839283C382D4820E94E25760
:105860000F900F900F900F901E2D1F77012F4E2D30
:105870004F77401708F4042FD2015C91252F30E0B8
:10588000C557DD4FA881B981CB58D240E42FF0E055
:10589000359681E090E08C0F9D1FE80FF91F2C5F7B
:1058A0003F4F240D351D02C08D918193A217B30780
:1058B000D9F7852F90E0840F911D212F30E0281714
:1058C00039070CF04DC0142F150F4AC0213079F55F
:1058D000011741F1A6015695542F44275795479536
:1058E000400F511D60E070E0101BC401212F8E019C
:1058F0000F5F1F4F0E94F024892BA1F400D00F925C
:1059000085EC9DE0ADB7BEB711968D939C93129731
:105910001396CD92DC9214970E94E2570F900F904D
:105920000F900F9083EC9DE00E94A05724C000D000
:1059300000D0EDB7FEB7319683E89DE0ADB7BEB7B6
:1059400011968D939C9312972283138264827582A1
:105950000E94E257EDB7FEB73696EDBFFEBF0BC013
:105960006501C10160E071E049EC57E20E944E50D0
:10597000892B09F0F7CE85E48983C40160E7AE0185
:105980004F5F5F4F21E000E00E94C130D4011D96BF
:105990008C911D978823D1F71E968C911E9781308C
:1059A00011F11E962C9100D00F92EDB7FEB73196F3
:1059B00088E69DE0ADB7BEB711968D939C93129784
:1059C000228313820AC000D00F928DE49DE0EDB7D0
:1059D000FEB781839283E382F4820E94E2570F90A4
:1059E0000F900F900F90C057DD4FE2E10C943A59A1
:1059F0000F93DF93CF930F92CDB7DEB780E061E0D6
:105A00000E94DB21E0E4F6E088E0818384E0828389
:105A100080E1818390E2918320E821838583E0E621
:105A2000F6E0818391832183858380EB80938006D8
:105A3000E0E8F6E01482E0EEF6E0918380E4818312
:105A4000218396838583268380EF80930007E0E09F
:105A5000F7E0848380E060E00E94282281E060E03B
:105A60000E94282282E060E00E94282283E060E019
:105A70000E942822E0E5F0E087E4828384EC8583BD
:105A800088E1809350008091510084FFFCCF8FB754
:105A90008983F8941BBE24E080E490E0FC0108EDCB
:105AA00004BF208389818FBF88EE93E020E233E03A
:105AB000F9013197F1F70197D9F7E0E4FAE084E0D2
:105AC0008093400A8FE39CE986A397A382E08683B4
:105AD00088E58093C00880E1E0E4F6E086838BEA05
